:1000000024C048C0AEC52CC55EC844C043C042C071
:10001000E2C440C03FC03EC03DC03CC03BC03AC04F
:1000200039C038C037C036C035C034C033C032C024
:1000300031C030C02FC02EC02DC0BEC3010204800D
:100040004020100804020108590C11241FBECFEFF4
:10005000D2E0DEBFCDBF11E0A0E0B1E0EAEDFFE10C
:1000600002C005900D92A232B107D9F721E0A2E2B9
:10007000B1E001C01D92A13EB207E1F710E0C5E278
:10008000D0E003C02197FE01A0DFC432D107D1F731
:1000900031DCA1CFB5CFE82FF0E0E45CFF4FE49175
:1000A000A6E3B0E0833010F0A9E3B0E08C91E82340
:1000B00081E090E011F490E080E00895CF93DF9329
:1000C000E82FF0E0E45CFF4FE491833001F18230EF
:1000D00029F48091CA008F738093CA00C8E3D0E0EE
:1000E000A2E6B0E09E2F90952FB761110BC0F89457
:1000F0008881892388838C9189238C932FBFDF91FA
:10010000CF910895F8948881E82BE883F4CF80910B
:10011000CA008F7C8093CA00CBE3D0E0A3E6B0E0B6
:10012000E1CFCF93DF9386FF04C08F739AE0981BD3
:10013000892FE82FF0E0E45CFF4FE4918B3011F061
:100140008330D0F488E390E0A7E3B0E0C2E6D0E0EB
:100150002E2F2095611117C04FB7F8943C91322390
:100160003C93DC013C9132233C93888128232883F3
:100170004FBFDF91CF9108958BE390E0AAE3B0E009
:10018000C3E6D0E0E5CF623069F44FB7F8943C9114
:1001900023232C93DC012C912E2B2C938881E82B8C
:1001A000E883E6CF9FB7F8948881282328838C9131
:1001B000E82BEC939FBFDDCF86FD8F7328B1909124
:1001C0003D019295990F907E2F71922B98B999B11C
:1001D000907C892B89B92E9A2E99FECF86B197B142
:1001E00008952CEC37E0615071098109910908F4F8
:1001F0000895F9013197F1F7F6CFCF93DF93DC0142
:100200001C96ED91FC9126A137A12032310510F505
:10021000A6A1B7A1C6A1D7A120E230E02A1B3B0BC3
:100220004217530708F49A01DB01EC0FFD1FB901D7
:100230006E0F7F1FE617F70719F04D914193FACF24
:10024000DC011C96ED91FC9186A197A1280F391F26
:1002500037A326A3DF91CF910895DC011C96ED9181
:10026000FC9186A197A1809768F486A197A19C0133
:100270002F5F3F4F37A326A3E80FF91F608381E06C
:1002800090E0089590E080E00895682F83EA91E07F
:10029000E4CF0895DC011C96ED91FC9120A131A1E1
:1002A00082A193A12817390738F480A191A1E80F02
:1002B000F91F808190E008958FEF9FEF0895982FA8
:1002C00082958F706AE04EDE9F70890F08951092BC
:1002D000330110923401109235011092360181E001
:1002E0008093320161E01DDF60E081E0E7CE809124
:1002F0003A01883770F080913901882351F080915C
:100300003801811106C0E3DF81E08093380110924B
:100310003B010895882339F08091530190E0909338
:100320003101809330018091300190913101843509
:100330009105A0F48091300190913101209130011C
:1003400030913101281B390B30933101209330015A
:100350006DE073E010DE80959095089583E590E060
:10036000EDCF60E080E0AADE60E080E0DADE1092AF
:100370002C01089581E080932C0161E080E0D1DEC2
:1003800061E080E09BDE10922A0108951092330113
:1003900010923401109235011092360110923901F9
:1003A00060E083E08BDE10922F0108951FBC1EBC1D
:1003B0008EB584608EBD8EB581608EBD709A81E0F1
:1003C000A9DF9DBD8CBD789A0895DC011C96ED9146
:1003D000FC9120A131A182A193A12817390760F4D3
:1003E00080A191A19C012F5F3F4F31A320A3E80F73
:1003F000F91F808190E008958FEF9FEF0895DC0151
:100400001C96ED91FC9182A193A120A131A1821BA8
:10041000930B0895662351F083EA91E0F0DF892B76
:1004200029F083EA91E0D1DF8093230181E00895F0
:10043000DC019C96EC919C979D962C91E21730F4F0
:10044000E80FF92FF11D848590E008958FEF9FEF5D
:100450000895FC0194A585A52FEF3FEF981740F470
:10046000DF01A90FB11D1C962C9130E09F5F94A76E
:10047000C9010895FC0185A594A5891B990B0895D0
:10048000CF92DF92EF92FF920F931F93CF93DF9360
:100490006C01EB017B01E40EF51E10E000E0CE15CF
:1004A000DF0561F06991D601ED91FC910190F08139
:1004B000E02DC6010995080F191FF1CFC801DF9182
:1004C000CF911F910F91FF90EF90DF90CF90089503
:1004D0000F931F93CF93082F10E0F801E25CFE4FBB
:1004E0006083823358F4C62FC80103DBC81731F08C
:1004F0006C2FC801CF911F910F9103CBCF911F910A
:100500000F910895CF93DF93809137018F5F809390
:10051000370180913701843618F081E080933701EC
:10052000609137018DE0D4DF80913701F8942EDFA0
:1005300010923B01CAE0D0E01DDF64E670E080E08D
:1005400090E04FDE0EDF64E670E080E090E049DE90
:10055000219791F77894DF91CF91B9CE8F929F92A6
:10056000AF92BF92CF92DF92EF92FF92CF9381E44E
:1005700023DE7C0160915601062E000C770B880B60
:10058000990BD1DB20E030E048EC52E431DB4B0149
:100590005C01B701FF0C880B990BC5DB20E93BE040
:1005A0004BE75DE374DC9B01AC01C501B401B8DA33
:1005B0006B017C018ADBC62F81E08ADF6C2F70E043
:1005C00090E080E0B0DB9B01AC01C701B601A7DA87
:1005D00020E030E048EC52E45ADC77DB82E078DF60
:1005E000C701B601CF91FF90EF90DF90CF90BF9001
:1005F000AF909F908F900895CF92DF92EF92FF92ED
:10060000CF93C5B12F9A81E4D7DDBC01990F880B38
:10061000990B89DB20E93BE04BE75DE338DC6B01BC
:100620007C01C5B9C1E020E030E048EA50E42BDCB1
:1006300018160CF0C0E06C2F87E04ADFC701B60146
:10064000CF91FF90EF90DF90CF90089510923301FB
:1006500010923401109235011092360181E080939E
:10066000390110923A0161E083E028DDC5CFCF92D5
:10067000DF92EF92FF92CF9378982F9885B7877E7D
:10068000806185BF85B7806285BF80E28BBF82E0D5
:1006900080BD789481E080932E01889580912E0111
:1006A000882309F45CC0809122018F5F809322012E
:1006B0009091500180912201891708F450C0109246
:1006C000220180915201882349F0C091520152DEEB
:1006D0006C2F70E090E080E084DD43DE8091550176
:1006E000882359F0C091550161E083E0E7DC6C2F6D
:1006F00070E090E080E075DD49DE7EDF6B017C011B
:1007000080914501813021F080916701813039F578
:1007100080914601813041F0809151018F3F21F05D
:10072000809168018130D9F4809154018F3FB9F0F4
:100730006091540170E090E080E0F3DA20E030E076
:1007400040E251E455DA9B01AC01C701B6019BDBE5
:1007500087FD05C010922E0165E08BE0B9DE809127
:100760002E0181119ACFF89485B78F7D85BF2F9A7E
:100770001DDE80E38BBF83E080BD789410922B0157
:1007800010923B011092380161DF81E0C3DD9DBD15
:100790008CBDCF91FF90EF90DF90CF900895809126
:1007A0003C01882341F081E076DC892B21F4109212
:1007B0003B01ECDD5CCF08951F920F920FB60F92B4
:1007C00011242F933F934F935F936F937F938F9356
:1007D0009F93AF93BF93CF93EF93FF93C091A300E9
:1007E0008C2F8C7019F18FEF809398018091990173
:1007F00090919A019F7790939A01809399018091AB
:10080000A300846C8093A300FF91EF91CF91BF91DF
:10081000AF919F918F917F916F915F914F913F9198
:100820002F910F900FBE0F901F901895C6FD28C0F6
:100830008091990190919A0197FD22C0C7FF6FC0E6
:10084000C1FFAFC020919401309195018091960134
:10085000909197012817390708F0A1C08091940161
:10086000909195019C012F5F3F4F3093950120930C
:10087000940180599E4FFC0180818093A0004FC05D
:10088000C0FF66C08091990190919A0197FF29C09D
:100890008091990190919A012091A0009695982FAE
:1008A00088279795879588279370822B90939A0134
:1008B00080939901E0919B01F0919C01309789F11F
:1008C000109291011092900160919801809199018C
:1008D00090919A010995811124C087E08093A4002A
:1008E00093CF8091A00090E090939A01809399011A
:1008F000809198018F5F80939801809199019091E8
:100900009A01897F9927803F9105A1F680919901ED
:1009100090919A01906890939A018093990183E055
:10092000DDCFC1FF10C01092970110929601E091A7
:100930009F01F091A001309709F00995109295015F
:1009400010929401ECCF1092930110929201E7CF94
:10095000C1FF15C0E091A101F091A201309709F00B
:1009600009958FEF809398018091990190919A0158
:100970009F7790939A018093990180E443CFE0910F
:100980009D01F0919E01309761F3109291011092B8
:10099000900180919201909193010995E2CF82E0BC
:1009A0009DCF8091920190919301809790F48091D6
:1009B0009201909193019C012F5F3F4F30939301DF
:1009C000209392012091A00080599E4FFC0120832A
:1009D000A6CF86E083CF1F920F920FB60F921124FD
:1009E0002F933F934F935F936F937F938F939F9337
:1009F000AF93BF93EF93FF938091300190913101BA
:100A0000892B41F581E086DC9DBD8CBDC8DE8091DF
:100A10003801882359F080912F018823C1F085E0A7
:100A20003ADB0197A1F410923801A4DCFF91EF9119
:100A3000BF91AF919F918F917F916F915F914F91F6
:100A40003F912F910F900FBE0F901F9018959EDC35
:100A50000EDEECCF80E05EDC9DBD8CBDA0DEE6CF7F
:100A60001F920F920FB60F9211242F933F934F9323
:100A70005F936F937F938F939F93AF93BF93CF9326
:100A8000DF93EF93FF9381E006DBD82F80E003DB59
:100A9000C82F809100018D1759F1D1115FC061E01D
:100AA00081E00CDB62E081E03CDB64DC80913C01B6
:100AB000811118C081E080933C0180913201811145
:100AC00003C063E08BE004DD80913901882309F4E1
:100AD00041C080913B01882329F081E08093380157
:100AE00010923B0181E016DC9DBD8CBD109232015D
:100AF00080912D018C17B9F080912C01811113C0C8
:100B000080913901882379F08091380181110BC0DF
:100B100080913B01811107C0C13029F460E088E079
:100B2000D7DCC0933B01D0930001C0932D01FF910E
:100B3000EF91DF91CF91BF91AF919F918F917F9175
:100B40006F915F914F913F912F910F900FBE0F903A
:100B50001F90189510922E0179DDC4CF10923C01A0
:100B6000C7CF1F920F920FB60F9211242F933F936E
:100B70004F935F936F937F938F939F93AF93BF93A5
:100B8000EF93FF9385E087DA0197C1F480912B0101
:100B9000811103C081E080932B01FF91EF91BF9100
:100BA000AF919F918F917F916F915F914F913F9105
:100BB0002F910F900FBE0F901F90189580912B01D1
:100BC000882359F380913B01882339F310922B013C
:100BD00010923B0181E08093380180932F01C1DBAB
:100BE00081E098DB9DBD8CBDD8CF71E0D09ABA98DA
:100BF00000000000000058D6D09856D6A8940000F7
:100C000000000000C89B4BD6B2F08894B2990894BB
:100C1000771F60F7D09A803011F0BA9801C0BA9A65
:100C200000000000000040D6D098A894000000000A
:100C3000C89B35D639D600000000D09A872F992757
:100C4000089580E208950894881F01C0880FB9F0C4
:100C5000D09A00000000000018F40000BA9802C00A
:100C6000BA9A00C021D6D098A894000000000000D5
:100C7000C89B15D612F4882712C016D6E7CFD09A93
:100C800000000000BA9810D699278827D098A89419
:100C90000000C89B04D67AF3B29B81E005D6000021
:100CA0000000D09A089581E00895CF93DF93EC017E
:100CB000862FC9DF811108C08FA5811102C083E092
:100CC0008FA790E080E002C081E090E0DF91CF91BB
:100CD0000895682F81EB91E0E8CFD09ABA9AE4D5D5
:100CE000D098E2D5C89BDBD5BA98DED508958F930E
:100CF0008F918F93C89BD3D5BA9AD6D5A4DF88237A
:100D000011F4EBDFF5CF0F9008950895D09ACCD56C
:100D1000BA98CAD5D098C8D5C89BC1D5BA9AC4D5F7
:100D200092DF089581E00895AF92BF92DF92EF9233
:100D3000FF920F931F93CF93DF93EB01D62E880F73
:100D4000991F8160E3DF9091E001911105C081114D
:100D500003C082E08093E0018DEBE82E81E0F82E65
:100D600010E000E05E0181E0A81AB10881E0A01661
:100D7000B10609F080E039DFF70181937F010F5F51
:100D80001F4F0D1598F31092DD01C093DE011092F4
:100D9000DF01A3DF8C2FDF91CF911F910F91FF9087
:100DA000EF90DF90BF90AF900895C89B78D5BA9A26
:100DB0007BD549DF089581E00895CF93C091DF018D
:100DC000880FCC2369F0A2DF882341F080E0809374
:100DD000E00181E08093DF01CF91089582E0F7CFB9
:100DE000E4DF811101C0C2E0C093E001F2CF1F93A4
:100DF000CF93DF93162FEA01E0DF612F81EB91E0C3
:100E000054DF688181EB91E050DF67DFE1EBF1E0D7
:100E100016A617A6DF91CF911F9108951F93CF9328
:100E2000DF93C82FD0E0C25CDE4F1BE0AE01612F24
:100E300081E5DDDF1F5F21961F30C1F7DF91CF9184
:100E40001F910895CF93DF931F92CDB7DEB780E84F
:100E50008983AE014F5F5F4F61E081E5C8DF0F908E
:100E6000DF91CF910895CF92DF92EF92FF920F938F
:100E70001F93CF9310922601109227011092280100
:100E800010922901809123018330A1F154F5813022
:100E900079F18091230182330CF4B7C08091230152
:100EA00086330CF0B2C088E488DF80912301082EDD
:100EB000000C990BC2970DDF80912301833309F059
:100EC000BAC061E070E088E490E02EDF81EB91E051
:100ED000C0DACF911F910F91FF90EF90DF90CF90EC
:100EE000D4C9853009F454C0873099F685DBD1CF59
:100EF00035DBCFCF82E460D97C0183E45DD98C01FE
:100F0000C0915701B701FF0C880B990B0CD720E952
:100F10003BE04BE75DE3BBD76B017C01B801110FF0
:100F2000880B990B00D729E030EF4CE85AE3AFD794
:100F30009B01AC01C701B601F2D56B017C016C2F9E
:100F4000CC0F770B880B990BEED620E030E048EC05
:100F500052E44ED69B01AC01C701B601E1D56B014D
:100F60007C01B3D6C62F83E0B3DA6C2F70E090E03B
:100F700080E0D9D69B01AC01C701B601D0D520E0F5
:100F800030E048EC52E483D7A0D684E0A1DA81CFE8
:100F900083E412D9C0915801BC01990F880B990BB9
:100FA000C2D629E030EF4CE85AE371D72DEC3CEC87
:100FB0004CE45DE31DD66B017C016C2FCC0F770BED
:100FC000880B990BB0D620E030E048EC52E410D604
:100FD0009B01AC01C701B601A3D56B017C0175D69D
:100FE000C62F85E075DA6C2F70E090E080E09BD62C
:100FF0009B01AC01C701B60192D520E030E048EC7E
:1010000052E445D762D686E0C1CF80912301863372
:1010100064F5E09123010E2E000CFF0BE25CFE4F05
:10102000608183EA91E0CF911F910F91FF90EF9043
:10103000DF90CF9012C962E070E088E490E074DE47
:1010400081EB91E006DA21D981EB91E002DA1DD93A
:1010500044DE1092DF011092E001CF911F910F91B9
:10106000FF90EF90DF90CF90089580912301883416
:1010700084F681E5A2DE80912301082E000C990BF5
:10108000C69727DE61E070E081E590E04DDEDCCFC1
:10109000CF93DF93C82FD62F90DE6D2F81EB91E099
:1010A00004DE61E070E08C2F90E03EDE81EB91E0A9
:1010B000D0D9C82F12DEE1EBF1E016A617A68C2FCF
:1010C000DF91CF9108951F920F920FB60F921124C6
:1010D0003F924F925F926F927F928F929F92AF92C8
:1010E000BF92CF92DF92EF92FF920F931F932F93B5
:1010F0003F934F935F936F937F938F939F93AF93A0
:10110000BF93EF93FF93CF93DF93CDB7DEB72597D0
:10111000DEBFCDBF80912A018F5F80932A0180912D
:101120002A01833019F410922A011BD980912601DB
:1011300090912701A0912801B09129010196A11D4C
:10114000B11D8093260190932701A0932801B093AD
:1011500029018091330190913401A0913501B09122
:1011600036010196A11DB11D809333019093340186
:10117000A0933501B093360180916F0190E06CE34C
:1011800070E0F9D6009719F1209139012223F9F086
:10119000092E000CAA0BBB0B409133015091340176
:1011A000609135017091360184179507A607B7073E
:1011B00070F44091260150912701609128017091AF
:1011C000290184179507A607B70708F49BD98091D2
:1011D0006D0190E00097B9F020913901211113C001
:1011E0000091330110913401209135013091360185
:1011F00060E17EE0C0D6B0E0A0E080179107A207D2
:10120000B30708F47FD9809139018823C9F180910F
:101210003B018823A9F180914501813021F0809123
:101220006701813069F580914601882321F0809122
:101230006801813029F5809151018F3F09F18ED9E4
:101240006B017C016091510170E090E080E069D514
:1012500020E030E040E251E4CBD49B01AC01C70177
:10126000B601C2D487FF0CC061E088E031D964E0E8
:101270008BE02ED92CD881E08093380110923B016D
:1012800080913A01883728F480913A018F5F8093EA
:101290003A0160E088E4FCDE20916C0190916A01E3
:1012A00028170CF085C180916B0166E0813009F44C
:1012B00087C180916B01823041F466E08BE008D9F0
:1012C00080913901811101C002D864E081E5E0DE3E
:1012D0008F77F5D7182F65E081E5DADEF0D7082F94
:1012E00066E081E5D5DEEBD7B82E67E081E5D0DE9C
:1012F000E6D7682F70E090E080E020E831E541E03B
:1013000050E04AD66B017C016B2D70E090E080E0EC
:1013100020E13EE040E050E03FD6C60ED71EE81E7A
:10132000F91E602F70E090E080E02CE330E040E0B8
:1013300050E032D6C60ED71EE81EF91EC10ED11CD3
:10134000E11CF11C80915901BAD7182F80915A01E4
:10135000B6D7082F80915B01B2D7B82E80915C017F
:10136000AED7682F70E090E080E020E831E541E002
:1013700050E012D62B013C016B2D70E090E080E034
:1013800020E13EE040E050E007D653014201860EE6
:10139000971EA81EB91E602F70E090E080E02CE33D
:1013A00030E040E050E0F8D5860E971EA81EB91E2A
:1013B000810E911CA11CB11C80915E0180D7182F59
:1013C00080915F017CD7082F8091600178D7382EFB
:1013D0008091610174D7682F70E090E080E020E890
:1013E00031E541E050E0D8D52B013C01632D70E0A0
:1013F00090E080E020E13EE040E050E0CDD5460EB8
:10140000571E681E791E602F70E090E080E02CE38C
:1014100030E040E050E0C0D5460E571E681E791EF1
:10142000A3019201210F311D411D511D2A833B83D0
:101430004C835D8380913901882309F4CCC081E01D
:1014400091E081149104A104B10431F0209147018D
:1014500091E0213009F090E02A813B814C815D814F
:10146000232B242B252B09F4FAC03091480121E0CD
:10147000313009F020E0B701A601481959096A097D
:101480007B098A809B80AC80BD80C818D908EA0897
:10149000FB08882309F4F9C091113FC1423051057E
:1014A0006105710508F0E5C061E089E011D861E0EF
:1014B00087E20ED8809139018111D3C061E08BE0C1
:1014C00007D805D7809124018F5F809324018091F4
:1014D00024018F3F79F5109224018091640143E645
:1014E00051E0813021F560E088E4D2DD682F8A3157
:1014F0000CF0E7C0062E000C770B6A517109072E1D
:10150000000C880B990B0FD424E035EC41E05EE32E
:10151000BED4D6D390916301892F8F7396FD8054EA
:10152000680F67FD60586983AE014F5F5F4F62E0EF
:1015300081E55DDC80913901811113C08091250125
:10154000882379F0809125018F5F80932501809118
:101550002501843031F41092250168E08BE0B8D782
:10156000B6D60F900F900F900F900F90DF91CF9104
:10157000FF91EF91BF91AF919F918F917F916F916B
:101580005F914F913F912F911F910F91FF90EF909D
:10159000DF90CF90BF90AF909F908F907F906F9093
:1015A0005F904F903F900F900FBE0F901F90189537
:1015B00089170CF08ACE80916901813029F467E0A7
:1015C0008BE086D794D681CE8091690167E0823026
:1015D00009F07BCE73CE80914501882309F42FCF8B
:1015E00015B12F9ABBD72B013C0115B96091510160
:1015F00070E090E080E095D320E030E040E251E4FC
:10160000F7D220914601A3012130D9F49201ECD206
:1016100087FF23C060915401809154018F3F09F4EA
:101620000ECF70E090E080E07CD320E030E040E23C
:1016300051E4DED2A3019201D7D2881F8827881FE8
:10164000FFCE9201D1D287FDFACE809151018F3F1A
:1016500009F4F5CE61E088E03BD780E0F1CE21E0EF
:101660000ACF80916E0180FD2DCF81E0809325010E
:1016700029CF211178C0F7FE54C077FF17C04E3F25
:101680005F4F6F4F7F4F94F009C091110BC077FFF0
:1016900009C04E3F5F4F6F4F7F4F24F0D3DB8BE18C
:1016A000BDDB10CF21110ECFF7FE0CCF9EEFC91678
:1016B0009FEFD906E906F9060CF404CFC3DB80E2FC
:1016C000EFCF8FED860F8A3078F4062E000C770B63
:1016D00060527109072E000C880B990B24D32AE75E
:1016E00031EC4CEB5DEB14CF6B32ACF0062E000C02
:1016F000770B6A527109072E000C880B990B13D3D4
:101700002BE131E94DE85EEBC2D328ED31EF4BE63A
:101710005FE305D2FECE60E0FDCE2111D3CEF7FC13
:10172000C5CF32E0C316D104E104F104CCF461E08A
:101730008AE0CED661E088E2CBD680913901882359
:1017400009F4C0CE809138018111BCCE62E08BE0FB
:10175000BFD6BDD581E08093380110923B01B2CE57
:101760009111B0CE94CF77FFADCE4E3F5F4F6F4F0C
:101770007F4F0CF4A7CE92CF109226011092270132
:10178000109228011092290183EA91E038D6892B22
:1017900009F476C083EA91E018D680932301809102
:1017A00023018233DCF0809123018633BCF488E48A
:1017B00004DB80912301082E000C990BC29789DA73
:1017C00080912301833399F483EA91E0FED581DA95
:1017D00084DA1092DF011092E001089580912301D4
:1017E000863374F4809123018031BCF40895809194
:1017F0002301823369F383EA91E0E7D56ADAE4CF23
:1018000080912301883474F781E5D7DA8091230130
:10181000082E000C990BC697F1CF809123018233DB
:101820007CF583EA91E0EBD5892B51F1809123017E
:101830008B313CF08091230180321CF460E089E020
:1018400047D68091230180323CF08091230185327C
:101850001CF460E08AE03CD683EA91E0B6D5682FBC
:101860008091230135D680912301853249F48091FE
:1018700063018093760143E651E062E081E5B7CAF7
:101880000895BA98D098C298D89888279927B29B7B
:101890000895C89B089581E0089581E00895C89B4C
:1018A000FECFA8940895089598E09A95F1F70895C9
:1018B0000895E3EAF1E01382128288EE93E0A0E05B
:1018C000B0E084839583A683B78325E031E031833C
:1018D000208320E731E035872487E1EBF1E01382B4
:1018E000128284839583A683B78385E191E09183F7
:1018F0008083089581E2E1E0F0E0809357008491D5
:101900008150809374000000789480B7836080BF1A
:1019100083B7877F83BF83B7887F836083BF8091CE
:10192000C900887F8093C9008091CA008C7F816044
:101930008093CA008091C900877E8093C9008091FE
:10194000C900887F83608093C9008EB5887F8EBD73
:101950008FB58C7F81608FBD8EB5877E8EBD8EB535
:10196000887F83608EBD80E18093670084EA8093E6
:1019700068008CEF8093660085B1887F866085B9AA
:101980002F9A1092DD011092DE011092E001109268
:10199000DF0177DF60E080E0C4D362E081E0C1D3A3
:1019A00061E083E0BED360E085E0BBD360E081E42A
:1019B000B8D360E082E4B5D360E083E4B2D362E000
:1019C00084E0AFD362E086E0ACD3E0D481E08093E2
:1019D0003D0198E890933E0195E090934A0198E08C
:1019E00090934E0194E0909350019FEF909351019A
:1019F00024E62093520126E420935301909354014E
:101A000094E19093560190935701809364018BE485
:101A100080936A0180E580936C018CE380936F0171
:101A20008CE080936D01D0E0C0E0CE0162D0FE0179
:101A3000E25CFE4F8F3F09F057C01081CE0159D0B4
:101A4000181719F0612FCE015CD02196C233D10551
:101A500061F74CE651E063E088E4C9D94AE651E019
:101A600062E088E4C4D943E651E062E081E5BFD991
:101A700080914E018830D0F180914E018837B0F5C9
:101A800080914E01E091AF01F091B001880F8093F9
:101A9000A2001092A1008FEF80A78CEB8093A5008D
:101AA0008AE092E094A783A78CEB9BE096A785A79A
:101AB00083E397E090AB87A7F89480E38BBF83E044
:101AC00080BD80E282BB72D4F89481B5806481BD10
:101AD00081B5866081BD7894789460ED77E080E090
:101AE00090E07FD3B3D5FFCF8083AFCF88E090E085
:101AF000C9CFE199FECF9FBB8EBBE09A99278DB3EA
:101B00000895262FE199FECF1CBA9FBB8EBB2DBB3B
:101B10000FB6F894E29AE19A0FBE019608955058D4
:101B2000BB27AA270ED075C166D130F06BD120F04B
:101B300031F49F3F11F41EF45BC10EF4E095E7FB16
:101B400051C1E92F77D180F3BA1762077307840771
:101B5000950718F071F49EF58FC10EF4E0950B2EE9
:101B6000BA2FA02D0B01B90190010C01CA01A001EF
:101B70001124FF27591B99F0593F50F4503E68F14A
:101B80001A16F040A22F232F342F4427585FF3CF8B
:101B9000469537952795A795F0405395C9F77EF45C
:101BA0001F16BA0B620B730B840BBAF09150A1F0A5
:101BB000FF0FBB1F661F771F881FC2F70EC0BA0F2B
:101BC000621F731F841F48F4879577956795B795B3
:101BD000F7959E3F08F0B3CF9395880F08F09927AB
:101BE000EE0F979587950895D9D008F481E0089570
:101BF0000CD00FC107D140F0FED030F021F45F3F90
:101C000019F0F0C0511139C1F3C014D198F39923E0
:101C1000C9F35523B1F3951B550BBB27AA276217B0
:101C20007307840738F09F5F5F4F220F331F441FF5
:101C3000AA1FA9F333D00E2E3AF0E0E830D091502D
:101C40005040E695001CCAF729D0FE2F27D0660F1A
:101C5000771F881FBB1F261737074807AB07B0E859
:101C600009F0BB0B802DBF01FF2793585F4F2AF06F
:101C70009E3F510568F0B6C000C15F3FECF3983E4F
:101C8000DCF3869577956795B795F7959F5FC9F7CC
:101C9000880F911D9695879597F90895E1E0660F55
:101CA000771F881FBB1F621773078407BA0720F0CE
:101CB000621B730B840BBA0BEE1F88F7E095089537
:101CC00004D06894B111D9C00895BCD088F09F5752
:101CD00090F0B92F9927B751A0F0D1F0660F771F78
:101CE000881F991F1AF0BA95C9F712C0B13081F058
:101CF000C3D0B1E00895C0C0672F782F8827B85FA0
:101D000039F0B93FCCF3869577956795B395D9F7B8
:101D10003EF490958095709561957F4F8F4F9F4FC2
:101D20000895E89409C097FB3EF4909580957095CE
:101D300061957F4F8F4F9F4F9923A9F0F92F96E917
:101D4000BB279395F695879577956795B795F1118C
:101D5000F8CFFAF4BB0F11F460FF1BC06F5F7F4F29
:101D60008F4F9F4F16C0882311F096E911C077233B
:101D700021F09EE8872F762F05C0662371F096E844
:101D8000862F70E060E02AF09A95660F771F881F13
:101D9000DAF7880F9695879597F90895990F0008B7
:101DA000550FAA0BE0E8FEEF16161706E807F9072D
:101DB000C0F012161306E407F50798F0621B730BC8
:101DC000840B950B39F40A2661F0232B242B252B49
:101DD00021F408950A2609F4A140A6958FEF811DEC
:101DE000811D089597F99F6780E870E060E008958D
:101DF0009FEF80EC089500240A9416161706180623
:101E00000906089500240A941216130614060506FE
:101E10000895092E0394000C11F4882352F0BB0F8F
:101E200040F4BF2B11F460FF04C06F5F7F4F8F4FF2
:101E30009F4F089557FD9058440F551F59F05F3F2D
:101E400071F04795880F97FB991F61F09F3F79F0DC
:101E500087950895121613061406551FF2CF46955E
:101E6000F1DF08C0161617061806991FF1CF8695E0
:101E70007105610508940895E894BB2766277727C4
:101E8000CB0197F908958ADF08F48FEF08950AD0FF
:101E9000C0CFB1DF28F0B6DF18F0952309F0A2CF4C
:101EA000A7CFEBCFC7DFA8F39923D9F35523C9F305
:101EB000950F50E0551FAA27EE27FF27BB270024C8
:101EC0000894679520F4E20FF31FB41F0A1E220F37
:101ED000331F441FAA1F6695A9F7779530F4F30FB7
:101EE000B41F0A1E121E08F46395330F441FAA1F65
:101EF000221F769599F7879520F4B40F0A1E121EBB
:101F0000631F440FAA1F221F331F8695A9F7862F30
:101F1000712D602D11249F5750408AF0E1F08823E5
:101F20004AF0EE0FFF1FBB1F661F771F881F9150DF
:101F30005040A9F79E3F510570F054CF9ECF5F3FB0
:101F4000ECF3983EDCF3869577956795B795F79512
:101F5000E7959F5FC1F7FE2B880F911D969587959A
:101F600097F90895002480FD060E660F11F08695FE
:101F7000D1F7802D08950024552704C0080E591F5D
:101F8000880F991F009729F076956795B8F371052A
:101F9000B9F7802D952F0895EE27FF27AA27BB2795
:101FA00008C0A20FB31FE41FF51F220F331F441FE9
:101FB000551F969587957795679598F37040A9F783
:101FC000009799F7BD01CF010895EE0FFF1F05900F
:0A1FD000F491E02D0994F894FFCF7E
:101FDA0001000000002D01FD00FF01E5014A014951
:101FEA000100000000550640023A0229021802497F
:021FFA000100E4
:00000001FF
